:0400000013EF00F00A
:0E000800B8A04AEF00F0B890A5EF00F010008D
:10001800AFA012EF00F0AF9040EF00F010005AEDE3
:1000280000F060ED00F07CED00F086ED00F0B8B077
:1000380004EF00F0C37699ED00F099ED00F0C37677
:1000480099ED00F099ED00F01BEF00F00401000EAF
:10005800FB6F000EFA6F02444FEC00F0C06E99ED92
:1000680000F0042E3DEF00F0052E44EF00F012EFF3
:1000780000F0022A2AEF00F0050E056E000E026E4F
:100088000A0E046E000E026E2AEF00F0B4A00AEF0A
:1000980000F01BEF00F0F926810C420C240C180C20
:1000A800000C180C240C420C810C000C0001600E92
:1000B800AD6F020EB16F12000401D36BC387C38505
:1000C800286BCB97CB950401CE6B006BC687018755
:1000D8000401CF6B086BC78909890401D36B286BAE
:1000E800CB8509850401D06BC06B106BC86B1200FF
:1000F8000201030E3E6F02010C0E3F6F02012A0E31
:10010800406F1200D68A03016391030168810301DD
:100118006C81D690AF909F80D692B490A480D694EC
:10012800B890A880D68ED68C1200FA0E016EF90E01
:10013800006E0000002E9DEF00F0012E9BEF00F0F6
:020148001200A3
:020000040030CA
:10000000EC0D27C79FFFFFFFFFFFFFFFFFFFFFFF75
:10001000FFFFFFFFFFFFFFFFFFFFFFFFFFFFFFFFF0
:03002000FFFFFFE0
:00000001FF
